S02700004D65676120555341525420496E746572727570742054776F20536F757263652E73726563FC
S113000071C0000081C000007FC000007DC00000FE
S11300107BC0000079C0000077C0000075C00000FC
S113002073C0000071C000006FC000006DC000000C
S11300306BC0000069C0000067C0000065C000001C
S113004063C0000061C000005FC000005DC000002C
S11300505BC0000059C0000057C0000055C000003C
S113006053C0000051C000004FC000004DC000004C
S11300704BC0000049C0000047C0000045C000005C
S113008043C0000041C000003FC000003DC000006C
S113009074C0000039C0000037C0000035C0000043
S11300A033C0000031C000002FC000002DC000008C
S11300B02BC0000029C0000027C0000025C000009C
S11300C023C0000021C000001FC0000069C0000060
S11300D01BC0000019C0000017C0000015C00000BC
S11300E013C0000011241FBECFEFD1E2DEBFCDBF8D
S11300F000E00CBF22E0A0E0B2E001C01D92A430F9
S1130100B207E1F720D05FC07BCF89E18093C400C0
S11301101092C5008093CC001092CD008093D4003F
S11301201092D50088E18093C10088E98093C900CA
S11301308093D1000895E0ECF0E0908195FFFDCF2D
S11301408093C6000895E1DF81E4F5DF8AE0F3DF00
S1130150789480910102882331F080910202EBDFD0
S113016010920102F6CF80910002882391F38091CE
S11301700302E1DF10920002ECCF1F920F920FB640
S11301800F9211248F938091CE008093020281E01C
S1130190809301028F910F900FBE0F901F901895BE
S11301A01F920F920FB60F9211248F938091D60055
S11301B08093020281E0809301028F910F900FBE21
S10D01C00F901F901895F894FFCFDC
S9030000FC
